:100000000C949A040C94C2040C94C2040C94C20480
:100010000C94C2040C94C2040C94C2040C94C20448
:100020000C94C2040C94C2040C94C2040C94C20438
:100030000C94C2040C94C2040C94C2040C94C20428
:100040000C94F70D0C94C2040C94C50D0C949F0DE8
:100050000C94C2040C94C2040C94C2040C94C20408
:100060000C94C2040C94C20400407A10F35A00A00D
:10007000724E18090010A5D4E80000E87648170071
:1000800000E40B54020000CA9A3B000000E1F505B1
:10009000000080969800000040420F000000A086FB
:1000A00001000000102700000000E803000000002D
:1000B0006400000000000A000000000001000000D1
:1000C00000002C76D888DC674F0823DFC1DFAE59EB
:1000D000E1B1B796E5E3E453C63AE651997696E87E
:1000E000E6C28426EB898C9B62ED407C6FFCEFBC02
:1000F0009C9F40F2BAA56FA5F490055A2AF75C932D
:100100006B6CF9676DC11BFCE0E40D47FEF520E662
:10011000B500D0ED902E0300943577050080841E45
:10012000080000204E0A000000C80C333333330FA0
:10013000986E12831141EF8D2114893BE65516CF3D
:10014000FEE6DB18D1844B381BF77C1D901DA4BB49
:10015000E424203284725E228100C9F124ECA1E5FE
:100160003D27AED580A83FD300408D142002A1C802
:10017000DA12817FD9F1DB40A4A6AF2A46002A43D8
:100180000066742F73006D706800704146520067FE
:10019000706800626172002248672B00505349006A
:1001A000200056004B006B6D2F68004C002A006C3D
:1001B0002F68720052504D006B7061002500426143
:1001C000747465727920566F6C7473004176672081
:1001D0004675656C2045636F6E004675656C2043FF
:1001E0006F6E73756D70004F696C2054656D700093
:1001F0004675656C2054656D7000496E74616B6561
:100200002041697200436F6F6C616E742054656D9C
:1002100070004261726F6D6574657200546172673F
:10022000657420426F6F737400496E74616B652052
:1002300043616D203220416E6700496E74616B65C9
:100240002043616D203120416E67004745415220B7
:1002500000576865656C2053706565640054726969
:10026000676765722053796E6300486F6D65204340
:100270006F756E74005472696767657220436F759D
:100280006E74004D69737320436F756E74004C611A
:100290006D62646120285365636F6E6461727929B1
:1002A000004C616D62646120285072696D617279E1
:1002B0002900547261696C696E6720416E676C65D4
:1002C000004C656164696E6720416E676C6500492A
:1002D0006E6A6563746F722044433200496E6A65CA
:1002E00063746F7220444331004F696C2050726513
:1002F0007373757265004675656C20507265737313
:10030000757265005468726F74746C6520506F73F9
:10031000004D616E69666F6C642050726573737511
:10032000726500454E47494E4520535045454400AF
:1003300028557365722074616D70657220626974EE
:100340002900454550524F4D2061646472200000E1
:10035000030C0F30333C3FC0C3CCCFF0F3FCFF00A5
:100360000000080002010000030407000000000074
:1003700000000030780053746F636B205665686925
:10038000636C65204F4244494920504944207375AD
:1003900070706F72742066726F6D3A203078002A28
:1003A0002A446576696365205265736574202D2043
:1003B000496E697469616C697A65642A2A005761BB
:1003C000697400506C6561736500496E6974696198
:1003D0006C697A696E672E2E2E0029002028410054
:1003E00053637265656E200062011980400072657A
:1003F000616420636F6E762E206964782066726F68
:100400006D20454550524F4D3A2000726561642081
:100410007573657220646973702066726F6D204514
:100420004550524F4D3A2000557365722074616DEE
:100430007065722062697420656E61626C65642EFD
:100440002052656164696E672075736572207365FB
:100450007474696E67732E2E2E00293A0077726FBE
:1004600074652064656661756C74206469737020BE
:10047000746F20454550524F4D2028002920616C53
:1004800072656164793D2000454550524F4D2028EA
:1004900000557365722074616D70657220626974B5
:1004A00020696E2D746163742E20436865636B69E7
:1004B0006E672F726573657474696E672064656614
:1004C00061756C74732E2E2E00454550524F4D2091
:1004D00072657365742E20506C656173652072655A
:1004E00073746172742E00636C656172006C697361
:1004F0007400656570726F6D007365742064697354
:10050000702000636C65617265642064697370209B
:1005100000646174610064697370006D6973636184
:100520006E005570646174656420756E6974730043
:10053000756E6974007270740070726F6700726516
:100540006365697665643A200000000B0F2B10008C
:1005500000008080E0E08080000000000103030FC5
:100560000F03030100000000000000000000000075
:100570000000000080E060000000000000008080BB
:100580008080808000000000010303030303030157
:10059000000000000000000000000000000000005B
:1005A00000C0C000000000000002868686868686A5
:1005B0000200000081C3C3C3C3C3C3810000FC7A2F
:1005C0000606060606067AFC007EBCC0C0C0C0C097
:1005D000C0BC7E00000000000000000078FC0000AD
:1005E000000000000000003C7E0000028686868637
:1005F00086867AFC007EBDC3C3C3C3C3C38100002B
:1006000000028686868686867AFC000081C3C3C384
:10061000C3C3C3BD7E00FC7880808080808078FC6E
:100620000000010303030303033D7E00FC7A86867A
:10063000868686860200000081C3C3C3C3C3C3BDD0
:100640007E00FC7A8686868686860200007EBDC392
:10065000C3C3C3C3C3BD7E0000020606060606066A
:100660007AFC0000000000000000003C7E00FC7AE4
:100670008686868686867AFC007EBDC3C3C3C3C3D6
:10068000C3BD7E00FC7A8686868686867AFC00005C
:1006900081C3C3C3C3C3C3BD7E00000000001818DC
:1006A000000000000000000000181800000000BC5E
:1006B00001B801B401AF01AD01AB01A601A401A2D3
:1006C00001A0019C01970193018F018A018601819C
:1006D000017E017B01000005072060000000000092
:1006E00000005F00000007000700147F147F14243F
:1006F0002A7F2A12231308646236495620500008C4
:10070000070300001C2241000041221C002A1C7F1C
:100710001C2A08083E0808008070300008080808F5
:1007200008000060600020100804023E5149453E68
:1007300000427F400072494949462141494D3318E2
:1007400014127F1027454545393C4A49493141211A
:100750001109073649494936464949291E000014FE
:100760000000004034000000081422411414141446
:1007700014004122140802015909063E415D594EF8
:100780007C1211127C7F494949363E414141227F0A
:100790004141413E7F494949417F090909013E41A3
:1007A0004151737F0808087F00417F41002040418C
:1007B0003F017F081422417F404040407F021C02DD
:1007C0007F7F0408107F3E4141413E7F09090906B1
:1007D0003E4151215E7F0919294626494949320384
:1007E000017F01033F4040403F1F2040201F3F400A
:1007F00038403F63140814630304780403615949C3
:100800004D43007F41414102040810200041414115
:100810007F040201020440404040400003070800FA
:1008200020545478407F284444383844444428387D
:100830004444287F385454541800087E090218A4F0
:10084000A49C787F0804047800447D400020404048
:100850003D007F1028440000417F40007C04780464
:10086000787C080404783844444438FC182424185C
:1008700018242418FC7C0804040848545454240404
:10088000043F44243C4040207C1C2040201C3C4031
:1008900030403C44281028444C9090907C44645450
:1008A0004C44000836410000007700000041360843
:1008B0000002010204023C2623263C230311030408
:1008C00003F602E902DC02CF02C102B202A1028EEB
:1008D00002830275026A025D0251024B023A02294A
:1008E000021C0212020502FA01F001E701DA01CC52
:1008F00001BE0100000000250028002B00000000C0
:1009000000240027002A0004040404040404040250
:10091000020202020203030303030301020408109C
:100920002040800102040810200102040810200069
:10093000410E9C1C11241FBECFEFD8E0DEBFCDBFFF
:1009400011E0A0E0B1E0E4ECF7E402C005900D9204
:10095000A239B107D9F725E0A2E9B1E001C01D92A3
:10096000AC3BB207E1F714E0C9E9D4E004C0219739
:10097000FE010E94CF21C839D107C9F70E94C90ED4
:100980000C94D5230C94000090E0FC01E55EF64F3A
:100990002491895F964FFC018491882399F090E01F
:1009A000880F991FFC01E350F74FA591B491FC010A
:1009B000ED50F74F859194918FB7F894EC91E22B1D
:1009C000EC938FBF08950895DC01ED91FC910190A7
:1009D000F081E02D0994EF92FF920F931F93CF9334
:1009E000DF938C017B01D0E0C0E0F701EC0FFD1F2D
:1009F0006491662361F0D801ED91FC910190F08142
:100A0000E02DC8010995892B11F02196EECFCE017A
:100A1000DF91CF911F910F91FF90EF900895AF92CA
:100A2000BF92CF92DF92EF92FF920F931F93CF93DB
:100A3000DF936C017B018B01040F151FEB015E013D
:100A4000AE18BF08C017D10759F06991D601ED91D2
:100A5000FC910190F081E02DC6010995892B79F771
:100A6000C501DF91CF911F910F91FF90EF90DF9023
:100A7000CF90BF90AF900895FC0144815581608173
:100A8000718188EE94E00C940F05FC01538D448D28
:100A9000252F30E0842F90E0821B930B541710F029
:100AA000CF96089501970895FC01918D828D981736
:100AB00061F0A28DAE0FBF2FB11D5D968C91928D0E
:100AC0009F5F9F73928F90E008958FEF9FEF08953F
:100AD000FC01918D828D981731F0828DE80FF11D08
:100AE000858D90E008958FEF9FEF0895FC01918D23
:100AF000228D892F90E0805C9F4F821B91098F731C
:100B00009927089588EE94E00E94760521E0892BCC
:100B100009F420E0822F089580E090E0892B29F0ED
:100B20000E94820581110C9400000895FC01A48D9F
:100B3000A80FB92FB11DA35ABF4F2C91848D90E0FF
:100B400001968F739927848FA689B7892C93A089E2
:100B5000B1898C91837080648C93938D848D98136C
:100B600006C00288F389E02D80818F7D80830895FF
:100B7000EF92FF920F931F93CF93DF93EC0181E0ED
:100B8000888F9B8D8C8D98131AC0E889F989808194
:100B900085FF15C09FB7F894EE89FF896083E889C7
:100BA000F98980818370806480839FBF81E090E0B9
:100BB000DF91CF911F910F91FF90EF900895F62E46
:100BC0000B8D10E00F5F1F4F0F731127E02E8C8DE0
:100BD0008E110CC00FB607FCFACFE889F989808125
:100BE00085FFF5CFCE010E949605F1CFEB8DEC0F7E
:100BF000FD2FF11DE35AFF4FF0829FB7F8940B8F42
:100C0000EA89FB8980818062CFCFCF93DF93EC01AB
:100C1000888D8823B9F0AA89BB89E889F9898C91E4
:100C200085FD03C0808186FD0DC00FB607FCF7CFA0
:100C30008C9185FFF2CF808185FFEDCFCE010E94A0
:100C40009605E9CFDF91CF91089590E0FC01E15A3C
:100C5000FC4F2491FC01E55EF64F3491FC01E95F05
:100C6000F64FE491EE23C9F0222339F0233001F14D
:100C7000A8F4213019F1223029F1F0E0EE0FFF1F26
:100C8000ED50F74FA591B4918FB7F894EC916111A5
:100C900026C030953E233C938FBF08952730A9F09E
:100CA0002830C9F0243049F7809180008F7D03C03F
:100CB000809180008F7780938000DFCF84B58F771D
:100CC00084BDDBCF84B58F7DFBCF8091B0008F7763
:100CD0008093B000D2CF8091B0008F7DF9CF3E2BB2
:100CE000DACF3FB7F89480919F019091A001A09135
:100CF000A101B091A20126B5A89B05C02F3F19F014
:100D00000196A11DB11D3FBFBA2FA92F982F88278B
:100D1000BC01CD01620F711D811D911D42E0660F66
:100D2000771F881F991F4A95D1F708958F929F9238
:100D3000AF92BF92CF92DF92EF92FF924B015C0194
:100D40000E9471066B017C010E9471066C197D097D
:100D50008E099F09683E734081059105A8F321E043
:100D6000821A9108A108B10888EEC80E83E0D81E47
:100D7000E11CF11C81149104A104B10429F7FF9036
:100D8000EF90DF90CF90BF90AF909F908F9008959D
:100D90002FB7F89460919B0170919C0180919D0107
:100DA00090919E012FBF08950F931F930E94C80634
:100DB0006093F0047093F1048093F2049093F30431
:100DC00088EE94E00E94540597FF1DC00E94C8065B
:100DD0000091F0041091F1042091F2043091F30499
:100DE000601B710B820B930B0091EC041091ED04CE
:100DF0002091EE043091EF0460177107820793078A
:100E0000F8F28FEF9FEF1F910F910895CF93DF932B
:100E1000EC018A85882329F081508A87DF91CF9160
:100E200008959C818E819817C8F78D856827E88181
:100E3000F9810084F185E02D42E0CE0109958C8195
:100E40008F5F8C83EBCFDC011B96ED91FC9184913D
:100E50003196E491982F8E2F08959093AA05809350
:100E6000A9058EE995E00E942307019719F41092D5
:100E7000A705089581E08093A7050895DC01ED9111
:100E8000FC910084F185E02D40E009940F931F93BD
:100E9000CF938C01FC016483C085C60F6C2F6F70EB
:100EA0000E943E076C2F62956F706061C801CF9100
:100EB0001F910F910C943E07FC01278126952695E2
:100EC0002695621720F46583606B0C943E070895A5
:100ED0001F93CF93DF93EC01142F8E81681718F4C2
:100EE000CE010E944607612FCE01DF91CF911F9165
:100EF0000C945C072F923F924F925F926F927F9279
:100F00008F929F92AF92BF92CF92DF92EF92FF9219
:100F10000F931F93CF93DF9300D000D000D01F9288
:100F2000CDB7DEB79F838E83D62EFC010385148553
:100F30000115110509F423C1F80132965490319638
:100F4000C490EC2CF12CF7E0EF0EF11C23E0F594AB
:100F5000E7942A95E1F7E982F80134968491319675
:100F6000B4904DE0641324C0EE81FF818681882314
:100F700021F060E0CF010E94460781E090E02796D3
:100F80000FB6F894DEBF0FBECDBFDF91CF911F919A
:100F90000F91FF90EF90DF90CF90BF90AF909F9018
:100FA0008F907F906F905F904F903F902F9008951B
:100FB000FAE06F1314C0EE81FF818681882321F04F
:100FC00060E0CF010E944607EE81FF818685658142
:100FD0008E9D600D1124CF010E945C07CECF681753
:100FE00040F1482F4B0D5527551F641715060CF57A
:100FF000D81A412C0A5F1F4FEE81FF8191858685AB
:10100000989F802D11248D83411011C0CF010E9423
:1010100023070297A0F45E9C90015F9C300D112481
:10102000D29EC001D39E900D1124080F191F612C70
:1010300029C050E2D512A3C044244394DBCFEC2D49
:10104000E77088E0682E6E1AE11101C0612CF8018A
:1010500020E090E080E0D21631F03491830F911DB2
:101060002F5F3196F8CFF801ED0DF11D5490E89EF9
:10107000F001E99EF00DF89EF00D1124EB0DF11D2D
:101080000E0F1F1FEE81FF81F481FA83EE81FF8135
:10109000F581FB83EE81FF81F285FC83852C912C09
:1010A000AA24A394B12C212C4981241608F063C0F2
:1010B000312CEE81FF818685381608F055C04C81B1
:1010C0004287211002C0332041F0EE81FF8145812B
:1010D0004F5F6A81CF010E946807D12CC12CC514D3
:1010E000B0F5712C411004C0F801EC0DFD1D749099
:1010F000662061F0EA14FB0449F4E72DF0E0062CC9
:1011000002C0F595E7950A94E2F77E2EEE81FF8105
:101110008685823079F43320B1F072948FE07822A2
:10112000E72DF0E0E15BFC4F7490672D8E819F818D
:101130000E940607672D8E819F810E9406074FEF50
:10114000C41AD40ACCCFF72DFF707F2EE9CFD12C53
:101150005D81D51639F060E08E819F810E9406077F
:10116000D394F6CF3394A5CF23948FEFA81AB80A5F
:10117000080D191D99CF6B818E819F812DCF90E035
:1011800080E0FDCECF92DF92EF92FF920F931F93FC
:10119000CF93DF93EC01F62EC42ED22E1A868F81C8
:1011A000869586958695081710F00FEF080F1D2D70
:1011B000011780F0412F6F2DCE010E946807EF2CA0
:1011C000CE1430F06D85CE010E940607E394F8CF6F
:1011D0001F5FEECF4D2D6F2DCE01DF91CF911F916F
:1011E0000F91FF90EF90DF90CF900C9468070F93D2
:1011F0001F934091A9055091AA059091AC0500E07C
:101200004115510571F0FA013396049110E0095F20
:101210001F4F23E0159507952A95E1F7909F002D24
:1012200011240D5F41155105C1F04E5F5F4FFA016A
:101230004491949F402D11242091A705E82F929F5F
:10124000E00D1124E1504E0F24E0682F8EE995E067
:101250000E94C2081F910F91089540E0EDCF0F93B7
:10126000FC0107810695069506950150468141507F
:1012700020E060E00E94C2080F910895CF93CFB79D
:10128000F89480919901811124C0E1E1F9E0849101
:10129000E5E2F9E09491E82FF0E0EE0FFF1FE35054
:1012A000F74FA591B491EC91E92321F461E08AE034
:1012B0000E9425068AE00E94C4048CB580618CBD22
:1012C0008CB580648CBD8DE00E94C4048BE00E94CC
:1012D000C404809199018F5F80939901CFBFCF9112
:1012E00008958FB7F894809198018FBF089561E0B9
:1012F0008091AF050C9425060F931F93CF93DF9336
:101300008C01EC01CC0FDD1FCC0FDD1FC750DE4F71
:1013100068527B4FFB016085FA01E852FB4F8085E4
:10132000762F682F90E080E00E945D1F68837983AC
:101330008A839B838EE0809FF001819FF00D1124B2
:10134000EF5FFC4F81E090E095878487DF91CF913C
:101350001F910F9108958EBD00000DB407FEFDCFC3
:101360008EB508958CBD9DBD08951F93CF93DF93D7
:10137000EC01162F61E0411101C060E088890E94F4
:10138000250680E591E00E94B20960E08F850E9409
:101390002506812F0E94AB0961E08F85DF91CF91F7
:1013A0001F910C94250690E080E00895FB010190C8
:1013B0000020E9F73197AF01461B570BDC01ED9197
:1013C000FC910280F381E02D09948F929F92AF925D
:1013D000BF92EF92FF920F931F93CF93DF93CDB7FE
:1013E000DEB7A1970FB6F894DEBF0FBECDBF7C016C
:1013F000FA01CB0119A2223008F42AE08E010F5D18
:101400001F4F822E912CB12CA12CBF01A50194015C
:101410000E94C920F901CA016A300CF5605DD8014B
:101420006E938D01232B242B252B79F790E080E000
:10143000109721F0BD01C7010E94D609A1960FB6F1
:10144000F894DEBF0FBECDBFDF91CF911F910F91FA
:10145000FF90EF90BF90AF909F908F900895695C40
:10146000DECFCF92DF92EF92FF920F931F93CF9335
:10147000DF936B01770FEE08FF084A305105F1F456
:101480002AE0F7FE1CC0EC016DE20E94E4048C012E
:1014900044275527BA014C195D096E097F092AE0D6
:1014A000CE010E94E509800F911FDF91CF911F911E
:1014B0000F91FF90EF90DF90CF900895242FB70108
:1014C000A601DF91CF911F910F91FF90EF90DF90D8
:1014D000CF900C94E50968E871E00C94D609CF939D
:1014E000DF93AB01BC0188EE94E00E94310AEC016D
:1014F00088EE94E00E946B0A8C0F9D1FDF91CF91C4
:1015000008950F931F93CF93DF93EC010E94EB0498
:101510008C01CE010E946B0A800F911FDF91CF9149
:101520001F910F9108950F931F93CF93DF938C0119
:10153000EB01FC01808191810097E1F06881798164
:1015400061157105A9F0428153812C813D814217BB
:10155000530770F00E94CE238C819D81F801958302
:1015600084831D821C82DF91CF911F910F9108957A
:101570000E94712288819981F801918380838A81F8
:101580009B81938382838C819D819583848319823F
:1015900018821B821A82E5CFFC018081918100971D
:1015A00011F00C94712208950F931F930091B005D0
:1015B0001091B1052091B2053091B30540E052E1A0
:1015C0006AE770E090E0041715072607370740F434
:1015D00076956795579547959F5F9630A1F797E069
:1015E000892F806A9095869591700E94B20960E07B
:1015F0008091AF051F910F910C9425061F93CF93F7
:10160000DF93182FD62FC42F0E94D40A85E00E94A2
:10161000AB09812F0E94AB098D2F0E94AB098C2F43
:101620000E94AB09DF91CF911F910C947709CF9263
:10163000DF92EF92FF92CF93DF93D82F482F60EE87
:101640008FE00E94FE0A0E94C8066B017C012AE01E
:10165000C20ED11CE11CF11C0E94C8066C157D0550
:101660008E059F05E0F40E94D40A83E00E94AB0936
:101670008EE00E94AB0980E00E94AB09C82F0E9457
:101680007709C07EDC13E8CF81E091E0892790E004
:10169000DF91CF91FF90EF90DF90CF90089580E0A1
:1016A000F4CFCF93DF93D82FC62F0E94D40A82E0C5
:1016B0000E94AB098D2F0E94AB098C2F0E94AB09B1
:1016C000DF91CF910C947709EF92FF920F931F93C4
:1016D000CF93DF93C82F162FE72E042F0E94D40A32
:1016E00082E00E94AB098C2F0E94AB09F12EC12F22
:1016F000DE2D89910E94AB098C2F8F198017C8F3BA
:10170000DF91CF911F910F91FF90EF900C9477098B
:10171000FF920F931F93CF93DF93C82FF62E172FAF
:10172000042F0E94D40A83E00E94AB098C2F0E94F0
:10173000AB09CF2DD12F0C0F1D2F111DC017D107B5
:1017400029F080E00E94AB098993F8CFDF91CF9117
:101750001F910F91FF900C947709AF92BF92CF9297
:10176000DF92EF92FF920F931F93CF93DF9300D0FE
:1017700000D01F92CDB7DEB78C01000F111F000FF4
:10178000111FF801E05AFE4F45E0BE016F5F7F4F29
:1017900081810E94880B8A81C98098E0C99E60017E
:1017A0001124282F30E055E0359527955A95E1F71B
:1017B000C20ED31E0D2C000CEE08FF0883FF20C0C4
:1017C00092E0CC0CDD1CEE1CFF1C9A95D1F78370C7
:1017D000C80ED11CE11CF11CFE2CED2CDC2CCC2401
:1017E0008B81C80ED11CE11CF11CFE2CED2CDC2CD5
:1017F000CC248C81C80ED11CE11CF11C6894F7F834
:101800008D818F70B82EE8E081E090E0EB1588F1D3
:10181000F801E05AFE4FA0800E94D40A83E00E94A3
:10182000AB098A2D0E94AB0980E00E94AB09A82E6B
:101830000E947709A3FE02C06894F6F8C092D8040B
:10184000D092D904E092DA04F092DB04B092DC0486
:10185000005A1E4F4B2D60EE74E0F80182810E9409
:10186000880B40E0F80163818CE20E94FE0A90E060
:1018700080E00F900F900F900F900F90DF91CF911D
:101880001F910F91FF90EF90DF90CF90BF90AF909E
:1018900008950E94B723FC0180819181009711F087
:1018A0000C94CA1C60E070E0CB010895FC01248117
:1018B0003581FB014481558124173507E1F4FC0192
:1018C00080819181FB01608171810097D1F0611568
:1018D0007105A1F4232BC1F0FC01808190E008C0C8
:1018E000232B91F0FB01808190E0919581959109E6
:1018F00021E0892B09F020E0822F08950E94C52362
:10190000F7CF6115710561F721E0F6CF0F931F93B3
:10191000CF93DF93EC0188819981009759F02A8158
:101920003B812617370730F081E0DF91CF911F917F
:101930000F9108958B016F5F7F4F0E94FA220097ED
:1019400059F0998388831B830A832C813D81232B43
:1019500059F7FC011082E8CF80E0E7CFCF93DF9307
:10196000EC0170E060E00E94860C288139818111D1
:101970000FC02115310519F0C9010E947122198289
:1019800018821D821C821B821A82DF91CF910895DA
:101990001D821C826AE871E0C901DF91CF910C942D
:1019A000CE23EF92FF920F931F93CF93DF9300D03C
:1019B000CDB7DEB78C01FC01118210821382128236
:1019C000158214820E94AE0C0E94D40697FD21C09D
:1019D00080329105F1F089831A82F801E480F58064
:1019E000FFEFEF1AFF0AB701C8010E94860C882397
:1019F00059F3F8012081318184819581BE016F5FA7
:101A00007F4F820F931F0E94CE23F801F582E4825C
:101A1000DBCFC8010F900F90DF91CF911F910F91F5
:101A2000FF90EF900895EF92FF920F931F93CF9343
:101A3000DF93EC018B01198218821B821A821D82AE
:101A40001C82CB010E94031D7C01BC01CE010E94BF
:101A5000860C28813981811113C02115310519F0B7
:101A6000C9010E947122198218821D821C821B8268
:101A70001A82DF91CF911F910F91FF90EF900895FF
:101A8000FD82EC82B801C901DF91CF911F910F91C6
:101A9000FF90EF900C94FC1C1F93CF93DF93EC010D
:101AA000162F0E947C20181739F0612FCE01DF918C
:101AB000CF911F910C948420DF91CF911F910895B5
:101AC0000C947C200F931F93CF93DF93D0E0C0E062
:101AD000082F10E0C017D1076CF562E473E088EEC0
:101AE00094E00E94EB044AE050E0BE0188EE94E0EE
:101AF0000E94310A6BE871E088EE94E00E94D609FA
:101B0000CE010E94600D482F50E070E060E02AE0B6
:101B100088EE94E00E94E509209731F460E373E0D9
:101B200088EE94E00E94EB0488EE94E00E946B0A39
:101B30002196D0CFDF91CF911F910F9108951F92E1
:101B40000F920FB60F9211242F933F934F935F93F1
:101B50006F937F938F939F93AF93BF93EF93FF9375
:101B600088EE94E00E949605FF91EF91BF91AF91AE
:101B70009F918F917F916F915F914F913F912F91A5
:101B80000F900FBE0F901F9018951F920F920FB6D7
:101B90000F9211242F938F939F93EF93FF93E091D4
:101BA000F804F091F9048081E091FE04F091FF04C3
:101BB00082FD1BC09081809101058F5F8F73209102
:101BC0000205821741F0E0910105F0E0E851FB4F7A
:101BD000958F80930105FF91EF919F918F912F91A8
:101BE0000F900FBE0F901F9018958081F4CF1F9219
:101BF0000F920FB60F9211242F933F938F939F93C1
:101C0000AF93BF9380919B0190919C01A0919D0106
:101C1000B0919E0130919A0123E0230F2D3758F5A2
:101C20000196A11DB11D20939A0180939B01909371
:101C30009C01A0939D01B0939E0180919F01909182
:101C4000A001A091A101B091A2010196A11DB11D19
:101C500080939F019093A001A093A101B093A20152
:101C6000BF91AF919F918F913F912F910F900FBE98
:101C70000F901F90189526E8230F0296A11DB11D05
:101C8000D2CFCF93DF931092EB041092EA0488EE48
:101C900093E0A0E0B0E08093EC049093ED04A09377
:101CA000EE04B093EF048CE691E09093E904809306
:101CB000E80485EC90E09093F5048093F40484ECC0
:101CC00090E09093F7048093F60480EC90E090937A
:101CD000F9048093F80481EC90E09093FB048093E6
:101CE000FA0482EC90E09093FD048093FC0486EC6F
:101CF00090E09093FF048093FE04109201051092EF
:101D00000205109203051092040585E895E0909372
:101D1000B5058093B4050E943E098AE08093AF0523
:101D200080E092E1AAE7B0E08093B0059093B1051E
:101D3000A093B205B093B3058AE00E94C4040E9448
:101D400077091092A1051092A0051092A805109293
:101D5000AA051092A9051092AB0581E08093AC050D
:101D60008EE791E090939F0580939E05C6E8D5E0AD
:101D7000198218821B821A821D821C82CE010E9447
:101D8000AE0C269685E0CE39D80791F7DF91CF913A
:101D90000895CF93DF93CDB7DEB7A8970FB6F89429
:101DA000DEBF0FBECDBF789484B5826084BD84B59C
:101DB000816084BD85B5826085BD85B5816085BD46
:101DC00080916E00816080936E00109281008091FE
:101DD0008100826080938100809181008160809386
:101DE0008100809180008160809380008091B100AB
:101DF00084608093B1008091B00081608093B000D6
:101E000080917A00846080937A0080917A00826069
:101E100080937A0080917A00816080937A0080912B
:101E20007A00806880937A001092C10064EF71E0BC
:101E300080E090E00E949606109202031092010347
:101E400081E090E0909304038093030362E070E0EC
:101E50007093060360930503909308038093070330
:101E600090930A038093090310920C0310920B03C2
:101E700090930E0380930D039093100380930F03B0
:101E80002AE030E03093120320931103909314035F
:101E90008093130390931603809315039093180374
:101EA0008093170390931A038093190390931C0354
:101EB00080931B0370931E0360931D0330932003D4
:101EC00020931F0310922203109221039093240366
:101ED00080932303909326038093250390932803F4
:101EE0008093270390932A038093290303E010E053
:101EF00010932C0300932B0330932E0320932D0378
:101F00009093300380932F03109232031092310389
:101F10009093340380933303909336038093350377
:101F20009093380380933703A4E0B0E0B0933A0372
:101F3000A093390330933C0320933B0390933E03DB
:101F400080933D031092400310923F03909342030D
:101F500080934103909344038093430390934603FB
:101F600080934503E5E0EE2EF12CF0924803E092D9
:101F7000470330934A032093490310924C03109275
:101F80004B0390934E0380934D03909350038093A3
:101F90004F03909352038093510390935403809383
:101FA0005303F6E0AF2EB12CB0925603A092550326
:101FB000309358032093570310925A0310925903F9
:101FC00010925C0310925B0390935E0380935D0319
:101FD0009093600380935F03909362038093610307
:101FE000E7E0F0E0F0936403E0936303309366036B
:101FF00020936503B0936803A093670390936A03EB
:102000008093690390936C0380936B0390936E03AA
:1020100080936D039093700380936F0348E0842E48
:10202000912C9092720380927103309374032093E9
:102030007303B0937603A093750390937803809312
:10204000770390937A038093790390937C03809332
:102050007B0390937E0380937D0349E050E050938F
:10206000800340937F030F2EF8EECF2EF3E0DF2E98
:10207000F02DD0928203C0928103F0928403E0920B
:1020800083039093860380938503909388038093C2
:10209000870370938A036093890390938C038093E2
:1020A0008B0330938E0320938D03D0929003C092C4
:1020B0008F03F0929203E0929103909394038093A4
:1020C0009303909396038093950370939803609382
:1020D000970390939A03809399030F2EFBE0EF2EC2
:1020E000F12CF02DF0929C03E0929B0390939E03C1
:1020F00080939D035093A00340939F031092A203EB
:102100001092A1031092A4031092A3031092A603AD
:102110001092A5039093A8038093A7030F2EFCE0D1
:10212000EF2EF12CF02DF092AA03E092A9039093E8
:10213000AC038093AB035093AE034093AD03109276
:10214000B0031092AF031092B2031092B103109239
:10215000B4031092B3039093B6038093B5030F2E8C
:10216000FDE0EF2EF12CF02DF092B803E092B703D2
:102170009093BA038093B9035093BC034093BB037D
:102180001092BE031092BD031092C0031092BF03C1
:102190001092C2031092C1039093C4038093C303AF
:1021A0000F2EFEE0EF2EF12CF02DF092C603E09200
:1021B000C5039093C8038093C7035093CA03409309
:1021C000C9031092CC031092CB031092CE0310924D
:1021D000CD031092D0031092CF039093D20380933B
:1021E000D1030F2EFFE0EF2EF12CF02DF092D4034F
:1021F000E092D3033093D6032093D503B092D80353
:10220000A092D7039093DA038093D9039093DC03D1
:102210008093DB031092DE031092DD039093E003C2
:102220008093DF036894EE24E4F8F12CF092E2034B
:10223000E092E1039093E4038093E3035093E60379
:102240004093E5039093E8038093E7031092EA0339
:102250001092E9031092EC031092EB039093EE03BB
:102260008093ED0341E150E05093F0034093EF037E
:102270003093F2032093F103B093F403A093F3039C
:102280001092F6031092F5031092F8031092F703E0
:102290009093FA038093F9039093FC038093FB03DC
:1022A00042E150E05093FE034093FD03309300045D
:1022B0002093FF03B0930204A0930104109204043E
:1022C00010920304109206041092050490930804DF
:1022D0008093070490930A048093090443E150E03B
:1022E00050930C0440930B0430930E0420930D0480
:1022F0009093100480930F04909312048093110420
:1023000010921404109213049093160480931504F1
:10231000909318048093170444E150E050931A04FA
:102320004093190430931C0420931B0490931E04C3
:1023300080931D041092200410921F041092220416
:1023400010922104909324048093230490932604F4
:102350008093250445E150E05093280440932704DE
:1023600030932A0420932904F0932C04E0932B0447
:1023700090932E0480932D041092300410922F0419
:1023800010923204109231049093340480933304F9
:1023900046E150E0509336044093350430933804BE
:1023A00020933704F0933A04E093390490933C046B
:1023B00080933B0410923E0410923D04109240041E
:1023C00010923F04909342048093410447E150E00F
:1023D00050934404409343043093460420934504AF
:1023E000F0934804E093470490934A04809349048F
:1023F00010924C0410924B0410924E0410924D0413
:102400009093500480934F0448E150E0509352045D
:10241000409351043093540420935304F093560492
:10242000E0935504909358048093570410925A04F3
:102430001092590410925C0410925B0490935E0415
:1024400080935D0449E150E05093600440935F0441
:1024500044E650E050936204409361041093640496
:10246000009363049093660480936504109268045B
:102470001092670490936A048093690490936C04AB
:1024800080936B044AE150E050936E0440936D04D6
:102490003093700420936F041093720400937104BE
:1024A00090937404809373041092760410927504D0
:1024B000909378048093770490937A0480937904BE
:1024C0004BE150E050937C0440937B0430937E04B6
:1024D00020937D049092800480927F0490938204E4
:1024E0008093810410928404109283047093860474
:1024F000609385049093880480938704E091F804A6
:10250000F091F90482E08083E091F404F091F50405
:102510001082E091F604F091F70487E68083109230
:102520000005E091FC04F091FD0486E08083E091D9
:10253000FA04F091FB04808180618083E091FA04C9
:10254000F091FB04808188608083E091FA04F0912F
:10255000FB04808180688083E091FA04F091FB04A1
:1025600080818F7D808384EF91E0A0E0B0E0809354
:10257000EC049093ED04A093EE04B093EF0490E08C
:1025800080E00E94600D9FEF980F9E3F08F470C09E
:1025900061E974E088EE94E00E94810A50E0C52E63
:1025A00051E0D52E10E000E0D601FD906D01AF2C7A
:1025B000B12CB092CE01A092CD010F5F1F4FC80188
:1025C0000E94600D8A151B0409F080C068E874E061
:1025D00088EE94E00E94EB044AE050E0B80188EEF7
:1025E00094E00E94310A6CE774E088EE94E00E9467
:1025F000EB046AE070E08091CD019091CE010E94E1
:102600006F0A0032110581F682E390E00E94600DAE
:10261000815031EBE32E31E0F32E03E310E08E3FE7
:1026200008F068C01093CE010093CD01C8010E944C
:10263000600D90E0D7018D939C936EEE73E088EE71
:1026400094E00E94EB04F701419151917F0170E009
:1026500060E02AE088EE94E00E94E50988EE94E0CC
:102660000E946B0A0F5F1F4F0D331105D9F653C03F
:10267000813051F668E274E088EE94E00E94810AAD
:1026800040E0E42E41E0F42E10E000E00F5F1F4F29
:10269000C8010E94600DF70180836BE074E088EE52
:1026A00094E00E94EB04D7014D917D0150E070E071
:1026B00060E02AE088EE94E00E94E50988EE94E06C
:1026C0000E946B0A0032110509F79ECF6F2DC801D9
:1026D0000E944C0D6DE574E088EE94E00E94EB04DE
:1026E0004AE050E0B80188EE94E00E94310A6AE5C1
:1026F00074E07BCF1093CE010093CD01F701608190
:10270000F2E0EF0EF11CC8010E944C0D0F5F1F4F4D
:102710000D33110579F782E00E94C40460E082E085
:102720000E9425066AE070E080E090E00E94960634
:1027300061E082E00E9425066AE070E080E090E0BF
:102740000E94960685E08093AD0583E08093AE05F8
:1027500085E00E94C4048091AE050E94C4040E94DA
:102760003E091092A2051092A305E8EEF3E08591D0
:102770009491E82EEAEEF3E0F490EBEEF3E0E491CE
:10278000E093A405ECEEF3E0E491E093A505EDEE13
:10279000F3E0E491E093A6058C01802F8E198F154C
:1027A00048F4F80164918EE995E00E943E070F5FBE
:1027B0001F4FF3CF8EE995E00E942F0985ED96E03B
:1027C0000E942D0720E5E22E21E0F22E8701F1E0A4
:1027D00000361F0761F0D801DC900E5F1F4F8D2D72
:1027E0000E94C40461E08D2D0E942506F0CF10E008
:1027F00000E09924939492E0A92EF701B080F2E0D2
:10280000EF0EF11C60E08B2D0E9425068EE995E00D
:102810000E942F099092AC0560EE73E08EE995E07E
:102820000E94EB0468012FEFC21AD20A4AE050E07E
:10283000B6018EE995E00E94310A6CED73E08EE9F5
:1028400095E00E94EB044AE050E0B8018EE995E083
:102850000E94310A6AED73E08EE995E00E94810AD8
:102860006AEC73E08EE995E00E94810A8EE995E0BA
:102870000E946B0A4EE16DE18EE995E00E946807C7
:10288000A092AC0563EC73E08EE995E00E94810AAA
:102890004CE368E28EE995E00E946807A092AC05DF
:1028A0006EEB73E08EE995E00E94810A61E08B2D6A
:1028B0000E94250661E070E080E090E00E949606AC
:1028C00086010730110509F098CF6AEF70E080E0CB
:1028D00090E00E94960689E495E00E942D07809181
:1028E000A9059091AA05009709F4ACC1FC013496A2
:1028F00004913196E491093308F0A4C110E0E00F8F
:10290000F12FF11DF9970CF49DC18EE995E00E941D
:102910002307E091A905F091AA052091AC05029743
:1029200008F48EC1E01BF10BFE96E491E29F802D2E
:102930001124282F30E03093A4012093A301E091CB
:10294000A905F091AA05309711F03396E49148E07B
:1029500050E05093A8014093A701A901485F5F4F41
:102960005093AA014093A90144505109440F551FA7
:102970005093AC014093AB0143E0849FF0011124DC
:102980003896F093AE01E093AD012E5F3F4F220FDA
:10299000331F220F331F3093B0012093AF010E94E9
:1029A000D40A80EC0E94AB090E9477096AE070E0CB
:1029B00080E090E00E949606CE0101964C018EE0E8
:1029C000D4011D928A95E9F74EE0B40180E30E949C
:1029D000640B4EE0B40180E40E94640B4EE0B4014D
:1029E00080E50E94640B60E080E60E94510B60E08D
:1029F00080E70E94510B63EA8BE20E94510B44E096
:102A000067E680E60E94FE0A41E067E680E70E94F2
:102A1000FE0A8CE0E8E2F1E0DE011F9601900D92E3
:102A20008A95E1F76E01BFE0CB0ED11CF12CE12CB1
:102A3000CFA2D8A688E0B82EF601019111916F01BE
:102A400080E80E94170B892B71F40230110509F4FC
:102A500045C108F0F9C00115110509F401C10130A3
:102A6000110509F441C180E80E94170B892B61F41C
:102A700060E08AE20E94510B60E889E20E94510BFB
:102A800060E888E20E94510B80E00E94170B88EEFC
:102A900094E00E946B0A6FE973E088EE94E00E9474
:102AA000810A88EE94E00E946B0A66E773E088EE84
:102AB00094E00E94EB0420E140E158EB6FE17EEFEF
:102AC00088EE94E00E94E50988EE94E00E946B0A8B
:102AD000F4E3CF2EF1E0DF2EF12CE12C412C512C30
:102AE000612CA0E87A2E10E000E05701EFEFAE1A5B
:102AF000BE0AD6014D915D916D917C91D301C201C9
:102B0000002E04C0B695A795979587950A94D2F79D
:102B100084239523A623B723892B8A2B8B2B69F03B
:102B200063E773E088EE94E00E94EB0460E170E0FC
:102B3000C501800F911F0E946F0A0F5F1F4F003267
:102B40001105B9F6BFEFEB1AFB0AE4E0CE0ED11C7B
:102B5000F6E0EF16F10439F60E94C8062091D3047E
:102B60003091D404621B730B90E080E00E945D1FE3
:102B70002AE037ED43E25CE30E94CA2187FD69C188
:102B80000E94D40A80EA0E94AB0980E00E94AB094F
:102B9000182F0E94770990E080E010FD04C011FF1B
:102BA00058C181E090E00E94AD0B892B09F051C122
:102BB0000E94C8066093D3047093D4048093D50414
:102BC0009093D6048091D8049091D904A091DA040E
:102BD000B091DB04803723E09207A105B10509F429
:102BE0007FC208F0C0C0823643E09407A105B1055A
:102BF00009F448C208F08AC08036E3E09E07A105C8
:102C0000B10509F40EC18136F3E09F07A105B105B6
:102C100009F429C24091D1045091D20470E060E0DF
:102C200084179507A607B70709F013C16091CF0471
:102C30007091D004AB014F5F5F4F8FE190E007C10F
:102C4000329673CE80E075CE0430110509F44AC087
:102C500008F446C00530110509F005CF88E101C030
:102C600080E0F1E0EF16F10409F040C01E8E1D8EE9
:102C7000BC8E1B8E44E0BE01655E7F4F0E94640BDC
:102C80002FEFE21AF20A36E0E316F10409F0D4CE8F
:102C900018A21F8E81E090E09AA389A38E01015EA5
:102CA0001F4F6E0143E2C40ED11CB8E0BB2ED80109
:102CB000ED90FD908D0180E80E94170B892B09F0A3
:102CC000D2CE1E8E1D8EBC8E1B8EE114F10499F0A7
:102CD000EA94EF2809F0C7CE84E20EC088E0C1CFA5
:102CE00080E1BFCF84E1BDCF84E0BBCF1B8E1C8EC3
:102CF0001E8E1D8EBFCF80E244E0BE01655E7F4F19
:102D00000E94640BC016D10691F6ADCE883623E042
:102D10009207A105B10509F4D4C1893633E09307C0
:102D2000A105B10509F076CF41E050E070E060E028
:102D30008BE090E00E947C0943E050E062E070E0AC
:102D40008CE090E00E947C0945E050E064E070E097
:102D50008DE090E00E947C0947E050E066E070E082
:102D60008EE090E074C0863743E09407A105B1057A
:102D700028F5833753E09507A105B10508F069C030
:102D80008237E3E09E07A105B10509F043CF41E09A
:102D900050E070E060E08BE190E00E947C0943E04D
:102DA00050E062E070E083E190E00E947C0945E041
:102DB00050E064E070E084E190E049C0823EF3E0DE
:102DC0009F07A105B10509F4AAC18F3D27E092072D
:102DD000A105B105F1F1803E33E09307A105B105EE
:102DE00009F018CF41E050E070E060E085E190E04C
:102DF0000E947C0943E050E062E070E086E190E0F0
:102E00000E947C0945E050E064E070E087E190E0DA
:102E10000E947C0947E050E066E070E088E190E0C5
:102E200016C041E050E070E060E090E080E00E9479
:102E30007C0943E050E062E070E081E090E00E94B5
:102E40007C0945E050E064E070E082E090E00E94A0
:102E50007C090E94C8062091CB043091CC04621BEF
:102E6000730B7093CA046093C9040E94C806209132
:102E7000C5043091C604621B730B7093C404609345
:102E8000C3046233710508F41BC350E0252E51E0E2
:102E9000352E69EF662E61E0762E79E7472E72E0D7
:102EA000572EE1E0EE2EE3E0FE2E49E7641642E005
:102EB000740609F405C3D1018D911D0190E0909332
:102EC000C2048093C1048034910509F4A7C2F701BC
:102ED000248535852130310509F04AC087509D4F42
:102EE000DC018C91882309F443C06281738190E0F6
:102EF00080E00E945D1F9B01AC01F3016081718144
:102F0000828193810E9458215B016C01D301AD92B3
:102F1000BD92CD92DC921397F701248135813093D5
:102F2000CE012093CD01F901EE0FFF1FEF54FE4FAC
:102F3000808191819093A6018093A50118161906AE
:102F4000A4F42530310509F45BC108F0F7C0213045
:102F5000310509F417C12330310509F44AC1D30101
:102F6000AD92BD92CD92DC921397F701158614862F
:102F7000D301AD90BD90CD90DC90A6019501F201FA
:102F800060817181828193810E94581F882309F496
:102F900031C20CEE11E0D7011A962C9145E0C60122
:102FA000B5010E94AC1CF201608171818281938124
:102FB0000FED11E0D7011A962C9145E00E94AC1C50
:102FC0008091C1049091C204FC01E750FD4F208123
:102FD000211135C2D701ED91FC91EE0FFF1FE55491
:102FE000F74F659174918FEC91E00E94FC1CE09189
:102FF000C104F091C204EE0FFF1FE05BFE4F60E0E2
:1030000080810E9425068EE995E00E942F0985EDBA
:1030100096E00E942D07B2E0B093AC0540E060E07E
:103020008EE995E00E94680781E08093AC058FEC03
:1030300091E0FC0101900020E9F7CF01805D914013
:103040009093CC018093CB01EFECF1E010E000E035
:10305000081719070CF0F2C02191203209F4F0C0D2
:103060000F5F1F4FF5CF41E050E070E060E083E07C
:1030700090E00E947C0943E050E062E070E084E070
:1030800090E0E5CE41E050E070E060E085E090E067
:103090000E947C0943E050E062E070E086E090E04E
:1030A0000E947C0945E050E064E070E087E090E039
:1030B0000E947C0947E050E066E070E088E090E024
:1030C000C6CE41E050E070E060E089E090E00E9410
:1030D0007C0943E050E062E070E08AE090E0B7CE27
:1030E00041E050E070E060E08FE090E00E947C09F9
:1030F00043E050E062E070E080E190E00E947C09F3
:1031000045E050E064E070E081E190E00E947C09DD
:1031100047E050E066E070E082E190E098CE41E068
:1031200050E070E060E089E190E00E947C0943E0BB
:1031300050E062E070E08AE190E089CE263031050F
:1031400009F465C02730310509F009CF81319105B7
:1031500009F46DC0429709F002CF23E333E148E858
:1031600053E4C601B5010E94EB2026E636E646EEA2
:103170005FE30E94BE1F20E030E040E052E40E9486
:10318000EC2011C08B30910589F08C30910561F1F4
:1031900023EC34E844E15EE30A9709F0E0CEC6018F
:1031A000B5010E94BE1F5B016C01D9CE26E636EA4E
:1031B0004AEC52E4C601B5010E94581F87FF0FC0B8
:1031C00021EB31E347E95EE3C601B5010E94BE1F72
:1031D00027EF3EE54FEE51E40E94EB20E4CF24E9D7
:1031E00034E844E15EE3DBCF2AE037ED43E25CE321
:1031F000D6CF2DE831E447E85EE30D9781F2AFCEFC
:1032000023E333E34BE651E40E9749F2A8CE8F3027
:10321000910541F0409709F0A2CE2EED3DE449E63C
:103220005FE3BDCF2FE232E14FE15FE3B8CF23E3AD
:1032300033E148E853E4C601B501CECF0DA11EA18C
:103240001093CE010093CD018FECC82E81E0D82ED3
:103250002091CD013091CE01C6018F5C9140821743
:10326000930744F4D6016D916D018EE995E00E94BB
:10327000E404EECF41E060E08EE995E00E9468074B
:103280008091CD019091CE01FC01E053FE4F6F0182
:103290002091CB013091CC01C6018F5C9140821707
:1032A000930744F4D6016D916D018EE995E00E947B
:1032B000E404EECF6FEC71E088EE94E00E94D60952
:1032C00088EE94E00E946B0A6DE871E085EC91E075
:1032D0000E94CE23F70184819581F2E0F093AC0542
:1032E0008930910509F44BC0FC01EE0FFF1FEF542C
:1032F000FE4F208131812B30310508F499C0309385
:10330000CE012093CD01E091CD01F091CE01EE0FE1
:10331000FF1FE155F94F6591749185EC91E00E9492
:10332000F11C85EC91E0DC010D900020E9F7CD0166
:10333000865C91409927E091A905F091AA05309704
:1033400009F47BC03296E4912091AC05E29FE02D18
:1033500011242091A7059091AC05299FE00D11241F
:1033600060E8E89F6019112440E08EE995E00E9432
:10337000680765EC71E08EE995E00E94D60989E462
:1033800095E00E942D07E7EACE2EE1E0DE2EFCEE6E
:10339000AF2EF1E0BF2EF6018081F2E0CF0ED11CFE
:1033A0000E94F708F601329744E060818EE995E0CB
:1033B0000E946807D5016D915D018EE995E00E943C
:1033C000E404E1EBF1E0EC15FD0529F78091C1047F
:1033D0009091C204FC01E750FD4F21E02083880F4B
:1033E000991FFC01E05BFE4F61E080810E94250691
:1033F0000DA31EA3F30180819181A281B381F2010B
:1034000080839183A283B3830E94C8066093C5041E
:103410007093C6048093C7049093C804F4E06F0EC1
:10342000711C24E0420E511C3EE0E30EF11C3DCD28
:103430009093CE018093CD0166CFE0E08ACF880FD4
:10344000991FFC01E05BFE4F60E080810E94250631
:103450000CEE11E05FEDA52E51E0B52E67EAC62E09
:1034600061E0D62ED8019D918D01F50181915F011A
:10347000981791F0D6018C910E94F70844E0F6016C
:1034800060818EE995E00E946807F80131976081BC
:103490008EE995E00E94E404F2E0CF0ED11C21E019
:1034A000013F1207F9F6E091C104F091C204EE0F5A
:1034B000FF1FE05BFE4F61E080810E9425069ACFEE
:1034C00088EE94E00E947605181619060CF0A8C044
:1034D000C4010E94D10CB40186E895E00E94930AD1
:1034E000C4010E94CC0AC4010E94D10CB4018CE832
:1034F00095E00E94930AC4010E94CC0AC4010E9474
:10350000D10CB40182E995E00E94930AC4010E94A3
:10351000CC0A1A8219821C821B821E821D82C4015F
:103520000E94AE0C0E94D40697FD19C08F87188A9E
:103530000D811E810F5F1F4FB801C4010E94860CD0
:10354000882381F329813A818D819E816FA178A59D
:10355000820F931F0E94CE231E830D83E3CFB401FD
:1035600088E995E00E94930AC4010E94CC0A88EE83
:1035700094E00E946B0A6EE375E088EE94E00E948E
:10358000EB0486E895E00E943C0560E971E088EE76
:1035900094E00E94D6098CE895E00E943C0560E921
:1035A00071E088EE94E00E94D60982E995E00E94DD
:1035B0003C0560E971E088EE94E00E94D60988E954
:1035C00095E00E943C0588EE94E00E946B0A69E356
:1035D00075E0C4010E94130DB40186E895E00E94D5
:1035E000560C182FC4010E94CC0A112309F4ABC059
:1035F00065E375E0C4010E94130DB4018CE895E009
:103600000E94560C182FC4010E94CC0A1123A9F065
:1036100082E995E00E944B0C709321016093200198
:1036200020E030E0232B09F497CA0E94820588230A
:1036300009F492CA0E9400008FCA60E375E0C401D9
:103640000E94130DB4018CE895E00E94560C182FCF
:10365000C4010E94CC0A112309F44AC082E995E012
:103660000E944B0C6B017093A6016093A50188E941
:1036700095E00E944B0CF601EE0FFF1FEF54FE4F3A
:10368000CB016083918343E3C40ED11CC6010E9429
:103690004C0D61E082E390E00E944C0D62E275E027
:1036A00088EE94E00E94810A2091A5013091A60144
:1036B0008091CD019091CE01A1E0B3E080509F4F69
:1036C000E1ECF4E0EA17FB0709F4AACF14964D9158
:1036D0005C9115974217530749F4FC01408149302A
:1036E00028F4E42FF0E0E750FD4F10821E96E8CF5B
:1036F0006BE175E0C4010E94130DB4018CE895E004
:103700000E94560C182FC4010E94CC0A112309F400
:1037100087CF82E995E00E944B0C6B017093CE013C
:103720006093CD0188E995E00E944B0C7093A6014F
:103730006093A501D092D204C092D1047093D004BA
:103740006093CF046DCF66E175E0C4010E94130D54
:10375000B40186E895E00E94560C182FC4010E941F
:10376000CC0A112309F4A2C08CE895E00E944B0C0E
:103770006830710508F054CF61E175E0C4010E9422
:10378000130DB40182E995E00E94560C182FC40174
:103790000E94CC0A112309F443CF8CE895E00E94E3
:1037A0004B0C2B013C017B0188E995E00E944B0CFE
:1037B0001B0188E00E94620D90E0C92E91E0D92E95
:1037C00090E080E0D6010C9110E0FC0131965F01A1
:1037D000E016F10619F08215930529F5F801EE0FB0
:1037E000FF1FE05BFE4F20812BA360E0822F0E9431
:1037F00025068EE995E00E942F0961E08BA10E94C9
:10380000250663E075E088EE94E00E94EB046AE030
:1038100070E0C8010E946F0AE0E4D601EC9360E416
:10382000C5010E944C0DC501FFEFCF1ADF0A80329F
:10383000910541F610E000E0910120503F4F3CA37C
:103840002BA3A70147505D4F7A0163015201CC249D
:10385000DD240F5F1F4FC801019782159305F9F40E
:10386000ABA1BCA14C92F701108269EF74E088EE25
:1038700094E00E94EB042AE0B601A50188EE94E0F2
:103880000E94E50988EE94E00E946B0A61E090E0F6
:1038900080E00E944C0D642DC8010E944C0D003246
:1038A0001105B9F688E00E94620DBACE62EF74E0AD
:1038B000C4010E94130DB40186E895E00E94560CE5
:1038C000182FC4010E94CC0A112309F4A9CE6DEE71
:1038D00074E0C4010E94130DB4018CE895E00E94CD
:1038E000560C182FC4010E94CC0A112311F080E459
:1038F000DACF67EE74E0C4010E94130DB4018CE8C6
:1039000095E00E94560C182FC4010E94CC0A112386
:1039100009F486CE10E000E06FEFC8010E944C0D64
:103920000F5F1F4F0F3F1105B9F769EC74E088EE88
:1039300094E00E94810A74CE88E995E00E94CC0A46
:1039400082E995E00E94CC0A8CE895E00E94CC0ABE
:1039500086E895E00C94CC0AEF920F931F93CF93D7
:10396000DF93E80134E047FD34E1042E000C550BF1
:1039700057FF03C0519541955109E32E022F242F83
:10398000AE010E94211DCE01DF91CF911F910F91B9
:10399000EF9008951F93FC0199278827BC01E894B4
:1039A00011911032E9F3193010F01E30C8F31B32B8
:1039B00051F01D3249F4689406C00E940C1D610F3D
:1039C000711D811D911D119110531A30B0F33EF4F9
:1039D00090958095709561957F4F8F4F9F4F1F9168
:1039E0000895FB01DC010D900020E9F71197059087
:1039F0000D920020E1F70895FB01DC0105900D9286
:103A00000020E1F70895FC0105900020E9F780957A
:103A100090958E0F9F1F0895592F482F372F262FCF
:103A2000660F771F881F991F660F771F881F991FC2
:103A3000620F731F841F951F660F771F881F991FC2
:103A40000895A9E0B0E0E7E2FDE10C9498206A0156
:103A5000F22EB02E102FFBE3AF2EA01608F41BE3BE
:103A60001F5F012F27E0AE014F5F5F4F0E94801E56
:103A7000BC018981982F9970913009F43FC09BE275
:103A8000E1FC04C09E2D9170E0FC3AC05E2D5071A7
:103A9000E82FE87083FF46C084E0911101C083E005
:103AA000EF2DE81B8F1508F0E0E0D6018E2F20E205
:103AB000552351F1992329F0D6019C93C601019613
:103AC0006C0196012D5F3F4FE2FE24C08EE4D601CB
:103AD0008C9391E411969C93119712968C93D90133
:103AE0008E2F90E281111BC0E20FF32FF11D108287
:103AF0008EEF9FEF2996ECE00C94B4209DE2C6CFA8
:103B000090E2C4CF2D9381508111FCCFCE0ED11CF9
:103B1000E0E0D0CF8EE6D6018C9391E6DBCF9D938B
:103B20008150E0CF482F447082FF3DC084E0911166
:103B300001C083E08F1510F4EF2DE81BD6018E2F06
:103B400020E2552309F1992329F0D6019C93C6015F
:103B500001966C0196012D5F3F4FE2FE1BC089E488
:103B6000D6018C938EE411968C93119786E412966D
:103B70008C93D9018E2F90E2882309F4B5CF9D93C1
:103B80008150FACF2D9381508111FCCFCE0ED11CE4
:103B9000E0E0D9CF89E6D6018C938EE611968C931E
:103BA000119786E6E4CF9B0177FF02C030E020E06A
:103BB000A1E0B0E0911102C0B0E0A0E0F9013196BF
:103BC000AE0FBF1F8B2C912CBB2009F461C0540198
:103BD000EFEFAE1ABE0AAA0DBB1DFA161B0619F0AE
:103BE00014F04F2D4A1B511188C0E3FC59C07601D7
:103BF000A42FB0E2A1114FC0C40ED11C992309F427
:103C00005BC040E0D6011196F60190836D0155230B
:103C100009F448C0012F060F9A81582F507184FF74
:103C200003C0913309F4015010160CF047C009305D
:103C300008F008E0EEE2FE2E5B01A01AB108850153
:103C40009194819491082F3F320729F4D601FC9278
:103C5000F60131966F016217730794F1021713078B
:103C60007CF5DB01A21BB30BAA24A394B12CAC0EF0
:103C7000BD1EAA0DBB1D11968C9121503109D60194
:103C8000119628153905F4F0F60180836D01DBCF1C
:103C9000B12CA12CA0CFF701B1937F01A150AACFE5
:103CA0009111B0CFD601942F50E302C05D93915093
:103CB0009111FCCFC40ED11C40E0ACCF01E0BACFD3
:103CC00080E3DBCF6217730731F4963388F49533C2
:103CD00011F4552369F0F6018083FD01842F90E2F1
:103CE000811108C0A40FB11D1C9290E080E002CFAA
:103CF00081E3F1CF91938150F3CF911183CF8ACF9C
:103D0000283008F027E03327DA01990F311D87FDAD
:103D1000916000966105710539F432602E5F3D9324
:103D200030E32A95E1F708959F3F30F08038710520
:103D3000610509F03C5F3C5F3D93913008F080687D
:103D4000911DDF93CF931F930F93FF92EF92192F43
:103D5000987F9695E92F96959695E90FFF27EE5354
:103D6000FF4F99273327EE24FF24A701E701059091
:103D70000894079428F4360FE71EF81E491F511DBA
:103D8000660F771F881F991F0694A1F70590079467
:103D900028F4E70EF81E491F561FC11D770F881F14
:103DA000991F661F0694A1F70590079428F4F80E52
:103DB000491F561FC71FD11D880F991F661F771FE8
:103DC0000694A1F70590079420F4490F561FC71FCA
:103DD000D81F990F661F771F881F0694A9F7849133
:103DE0001095177041F0D695C79557954795F7945C
:103DF000E7941A95C1F7E8E6F0E0689415901591FC
:103E000035916591959105907FE27395E118F10ADE
:103E1000430B560BC90BD009C0F7E10CF11E431F31
:103E2000561FC91FD01D7EF4703311F48A95E6CF5A
:103E3000E894015030F0080F0AF40027021708F444
:103E4000202F2395022F7A3328F079E37D932A954A
:103E5000E9F710C07D932A9589F6069497956795A2
:103E6000379517951794E118F10A430B560BC90BB8
:103E7000D00998F023957E9173957A3308F070E31A
:103E80007C932013B8F77E9170617D9330F0839519
:103E900071E37D9370E32A95E1F71124EF90FF9091
:103EA0000F911F91CF91DF91992787FD90950895EC
:103EB0000E949A1F08F481E00895E89409C097FBD6
:103EC0003EF490958095709561957F4F8F4F9F4FF1
:103ED0009923A9F0F92F96E9BB279395F695879535
:103EE00077956795B795F111F8CFFAF4BB0F11F4F8
:103EF00060FF1BC06F5F7F4F8F4F9F4F16C088239F
:103F000011F096E911C0772321F09EE8872F762FD4
:103F100005C0662371F096E8862F70E060E02AF015
:103F20009A95660F771F881FDAF7880F9695879501
:103F300097F90895990F0008550FAA0BE0E8FEEFD6
:103F400016161706E807F907C0F012161306E4075D
:103F5000F50798F0621B730B840B950B39F40A2656
:103F600061F0232B242B252B21F408950A2609F434
:103F7000A140A6958FEF811D811D08950E94D11F3C
:103F80000C9442200E94342038F00E943B2020F004
:103F9000952311F00C942B200C94312011240C94B7
:103FA00076200E94532070F3959FC1F3950F50E047
:103FB000551F629FF001729FBB27F00DB11D639FDB
:103FC000AA27F00DB11DAA1F649F6627B00DA11D81
:103FD000661F829F2227B00DA11D621F739FB00D27
:103FE000A11D621F839FA00D611D221F749F332797
:103FF000A00D611D231F849F600D211D822F762F30
:104000006A2F11249F5750409AF0F1F088234AF00C
:10401000EE0FFF1FBB1F661F771F881F9150504078
:10402000A9F79E3F510580F00C942B200C9476202C
:104030005F3FE4F3983ED4F3869577956795B795FF
:10404000F795E7959F5FC1F7FE2B880F911D969519
:10405000879597F9089597F99F6780E870E060E089
:1040600008959FEF80EC089500240A941616170611
:1040700018060906089500240A9412161306140659
:1040800005060895092E0394000C11F4882352F0BC
:10409000BB0F40F4BF2B11F460FF04C06F5F7F4F74
:1040A0008F4F9F4F089557FD9058440F551F59F05B
:1040B0005F3F71F04795880F97FB991F61F09F3F15
:1040C00079F087950895121613061406551FF2CF3E
:1040D0004695F1DF08C0161617061806991FF1CF8E
:1040E00086957105610508940895E894BB276627B5
:1040F0007727CB0197F90895F999FECF92BD81BD3D
:10410000F89A992780B50895262FF999FECF1FBAFE
:1041100092BD81BD20BD0FB6F894FA9AF99A0FBEF0
:10412000019608952F923F924F925F926F927F92E5
:104130008F929F92AF92BF92CF92DF92EF92FF92B7
:104140000F931F93CF93DF93CDB7DEB7CA1BDB0B63
:104150000FB6F894DEBF0FBECDBF09942A88398808
:1041600048885F846E847D848C849B84AA84B9840F
:10417000C884DF80EE80FD800C811B81AA81B9811B
:10418000CE0FD11D0FB6F894DEBF0FBECDBFED012F
:104190000895A1E21A2EAA1BBB1BFD010DC0AA1F88
:1041A000BB1FEE1FFF1FA217B307E407F50720F0A0
:1041B000A21BB30BE40BF50B661F771F881F991F1B
:1041C0001A9469F760957095809590959B01AC0164
:1041D000BD01CF0108955058BB27AA270E94032193
:1041E0000C9442200E94342038F00E943B2020F0A2
:1041F00039F49F3F19F426F40C9431200EF4E09525
:10420000E7FB0C942B20E92F0E94532058F3BA1798
:10421000620773078407950720F079F4A6F50C94DC
:1042200075200EF4E0950B2EBA2FA02D0B01B901CD
:1042300090010C01CA01A0011124FF27591B99F01C
:10424000593F50F4503E68F11A16F040A22F232F28
:10425000342F4427585FF3CF469537952795A79578
:10426000F0405395C9F77EF41F16BA0B620B730B1F
:10427000840BBAF09150A1F0FF0FBB1F661F771F90
:10428000881FC2F70EC0BA0F621F731F841F48F445
:10429000879577956795B795F7959E3F08F0B0CFCE
:1042A0009395880F08F09927EE0F979587950895B5
:1042B0000E946C210C9442200E943B2058F00E94E6
:1042C000342040F029F45F3F29F00C942B20511149
:1042D0000C9476200C9431200E94532068F399238B
:1042E000B1F3552391F3951B550BBB27AA276217F2
:1042F0007307840738F09F5F5F4F220F331F441FFF
:10430000AA1FA9F335D00E2E3AF0E0E832D0915032
:104310005040E695001CCAF72BD0FE2F29D0660F1F
:10432000771F881FBB1F261737074807AB07B0E862
:1043300009F0BB0B802DBF01FF2793585F4F3AF068
:104340009E3F510578F00C942B200C9476205F3F13
:10435000E4F3983ED4F3869577956795B795F795EE
:104360009F5FC9F7880F911D9695879597F90895D6
:10437000E1E0660F771F881FBB1F62177307840772
:10438000BA0720F0621B730B840BBA0BEE1F88F781
:10439000E09508950E949A1F08F48FEF0895EE0F9C
:1043A000FF1F0590F491E02D09940F931F93CF9375
:1043B000DF938230910510F482E090E0E091BA053D
:1043C000F091BB0530E020E0B0E0A0E0309799F438
:1043D0002115310509F44AC0281B390B2430310559
:1043E000D8F58A819B816115710589F1FB01938361
:1043F0008283FE0111C040815181028113814817DF
:104400005907E0F04817590799F4109761F0129690
:104410000C93129713961C933296CF01DF91CF9194
:104420001F910F9108950093BA051093BB05F4CF27
:104430002115310551F04217530738F0A901DB016E
:104440009A01BD01DF01F801C1CFEF01F9CF9093CF
:10445000BB058093BA05CDCFFE01E20FF31F819318
:1044600091932250310939832883D7CF2091B80501
:104470003091B905232B41F420912401309125017D
:104480003093B9052093B805209122013091230182
:104490002115310541F42DB73EB7409126015091C9
:1044A0002701241B350BE091B805F091B905E217FF
:1044B000F307A0F42E1B3F0B2817390778F0AC0147
:1044C0004E5F5F4F2417350748F04E0F5F1F509324
:1044D000B9054093B805819391939FCFF0E0E0E058
:1044E0009CCFCF93DF930097E9F0FC0132971382C2
:1044F0001282A091BA05B091BB05ED0130E020E039
:104500001097A1F420813181820F931F2091B8056B
:104510003091B9052817390709F061C0F093B90542
:10452000E093B805DF91CF910895EA01CE17DF0738
:10453000E8F54A815B819E0141155105B1F7E9011A
:10454000FB83EA8349915991C40FD51FEC17FD07EE
:1045500061F4808191810296840F951FE90199830E
:104560008883828193819B838A83F0E0E0E01296C6
:104570008D919C9113970097B9F52D913C911197CE
:10458000CD010296820F931F2091B8053091B90595
:104590002817390739F6309751F51092BB0510925C
:1045A000BA05B093B905A093B805BCCFD383C28335
:1045B00040815181840F951FC817D90761F44E5F60
:1045C0005F4F88819981480F591F518340838A81A9
:1045D0009B81938382832115310509F0B0CFF0933D
:1045E000BB05E093BA059ECFFD01DC01C0CF13826D
:1045F0001282D7CFB0E0A0E0E0E0F3E20C94942088
:104600008C01009751F4CB010E94D5218C01C80187
:10461000CDB7DEB7E0E10C94B020FC01E60FF71F48
:104620009C0122503109E217F30708F49DC0D9011B
:10463000CD91DC911197C617D70798F0C530D105F9
:1046400030F3CE0104978617970708F3C61BD70BE4
:104650002297C193D1936D937C93CF010E947122D5
:10466000D6CF5B01AC1ABD0A4C018C0E9D1EA091E9
:10467000BA05B091BB05512C412CF12CE12C1097BF
:1046800031F58091B8059091B9058815990509F023
:104690005CC04616570608F058C0809122019091E0
:1046A0002301009741F48DB79EB7409126015091A8
:1046B0002701841B950BE817F90708F055C0F09304
:1046C000B905E093B805F90171836083A0CF8D919E
:1046D0009C91119712966C90129713967C90139759
:1046E000A815B90559F56C0142E0C40ED11CCA14D5
:1046F000DB0420F1AC014A195B09DA011296159727
:1047000080F06282738251834083D9016D937C93E0
:10471000E114F10471F0D7011396FC93EE93129714
:1047200076CF22968C0F9D1FF90191838083F30130
:10473000EFCFF093BB05E093BA0569CF4816590651
:1047400008F42C017D01D3019ACFCB010E94D52121
:104750007C01009749F0AE01B8010E94BC23C8015A
:104760000E947122870153CF10E000E050CF81E01A
:1047700090E0F8940C94D523FB01DC0102C0019079
:104780000D9241505040D8F70895FB01DC018D9106
:10479000019080190110D9F3990B0895FB01DC01F8
:1047A00001900D920020E1F7089514E0C9E9D4E0EA
:1047B00004C0FE010E94CF212196CA39D107C9F752
:0447C000F894FFCF9B
:1047C40000010240404040404003404040404040DF
:1047D40040404040404004404005060740404040BF
:1047E40010270000BC058000000001000200030047
:1047F4000400050010B81FFE0000000000000000C7
:1048040000000000000000000000000000000000A4
:104814000E000F0010001100120013001400150008
:10482400606166017071760200000000B8050F0532
:1048340045050506760554056805000000007A075D
:104844000F05D309E304B5090D0A003D007C2000DF
:024854003E0024
:00000001FF
